{
  "_format": "hh-sol-artifact-1",
  "contractName": "Assessment",
  "sourceName": "contracts/Assessment.sol",
  "abi": [
    {
      "inputs": [
        {
          "internalType": "uint256",
          "name": "initBalance",
          "type": "uint256"
        }
      ],
      "stateMutability": "payable",
      "type": "constructor"
    },
    {
      "inputs": [
        {
          "internalType": "uint256",
          "name": "balance",
          "type": "uint256"
        },
        {
          "internalType": "uint256",
          "name": "withdrawAmount",
          "type": "uint256"
        }
      ],
      "name": "InsufficientBalance",
      "type": "error"
    },
    {
      "anonymous": false,
      "inputs": [
        {
          "indexed": true,
          "internalType": "address",
          "name": "origin",
          "type": "address"
        },
        {
          "indexed": true,
          "internalType": "address",
          "name": "destination",
          "type": "address"
        },
        {
          "indexed": false,
          "internalType": "uint256",
          "name": "amount",
          "type": "uint256"
        }
      ],
      "name": "AccessTransaction",
      "type": "event"
    },
    {
      "anonymous": false,
      "inputs": [
        {
          "indexed": false,
          "internalType": "uint256",
          "name": "amount",
          "type": "uint256"
        }
      ],
      "name": "Deposit",
      "type": "event"
    },
    {
      "anonymous": false,
      "inputs": [
        {
          "indexed": false,
          "internalType": "address",
          "name": "owner",
          "type": "address"
        }
      ],
      "name": "ShowAddress",
      "type": "event"
    },
    {
      "anonymous": false,
      "inputs": [
        {
          "indexed": true,
          "internalType": "address",
          "name": "addr",
          "type": "address"
        },
        {
          "indexed": false,
          "internalType": "uint256",
          "name": "amount",
          "type": "uint256"
        },
        {
          "indexed": false,
          "internalType": "bool",
          "name": "isDeposit",
          "type": "bool"
        }
      ],
      "name": "TransactionEvent",
      "type": "event"
    },
    {
      "anonymous": false,
      "inputs": [
        {
          "indexed": true,
          "internalType": "address",
          "name": "addr",
          "type": "address"
        },
        {
          "indexed": false,
          "internalType": "bool",
          "name": "isValid",
          "type": "bool"
        }
      ],
      "name": "VerifiedAddress",
      "type": "event"
    },
    {
      "anonymous": false,
      "inputs": [
        {
          "indexed": false,
          "internalType": "uint256",
          "name": "amount",
          "type": "uint256"
        }
      ],
      "name": "Withdraw",
      "type": "event"
    },
    {
      "inputs": [],
      "name": "balance",
      "outputs": [
        {
          "internalType": "uint256",
          "name": "",
          "type": "uint256"
        }
      ],
      "stateMutability": "view",
      "type": "function"
    },
    {
      "inputs": [
        {
          "internalType": "uint256",
          "name": "_amount",
          "type": "uint256"
        }
      ],
      "name": "deposit",
      "outputs": [],
      "stateMutability": "payable",
      "type": "function"
    },
    {
      "inputs": [],
      "name": "getBalance",
      "outputs": [
        {
          "internalType": "uint256",
          "name": "",
          "type": "uint256"
        }
      ],
      "stateMutability": "view",
      "type": "function"
    },
    {
      "inputs": [
        {
          "internalType": "address",
          "name": "_addr",
          "type": "address"
        }
      ],
      "name": "getTransactionHistory",
      "outputs": [
        {
          "components": [
            {
              "internalType": "uint256",
              "name": "amount",
              "type": "uint256"
            },
            {
              "internalType": "bool",
              "name": "isDeposit",
              "type": "bool"
            },
            {
              "internalType": "uint256",
              "name": "timestamp",
              "type": "uint256"
            }
          ],
          "internalType": "struct Assessment.Transaction[]",
          "name": "",
          "type": "tuple[]"
        }
      ],
      "stateMutability": "view",
      "type": "function"
    },
    {
      "inputs": [],
      "name": "owner",
      "outputs": [
        {
          "internalType": "address payable",
          "name": "",
          "type": "address"
        }
      ],
      "stateMutability": "view",
      "type": "function"
    },
    {
      "inputs": [],
      "name": "showAddress",
      "outputs": [],
      "stateMutability": "nonpayable",
      "type": "function"
    },
    {
      "inputs": [
        {
          "internalType": "uint256",
          "name": "_withdrawAmount",
          "type": "uint256"
        }
      ],
      "name": "withdraw",
      "outputs": [],
      "stateMutability": "nonpayable",
      "type": "function"
    }
  ],
  "bytecode": "0x6080604052604051610eae380380610eae833981810160405281019061002591906100ad565b336000806101000a81548173ffffffffffffffffffffffffffffffffffffffff021916908373ffffffffffffffffffffffffffffffffffffffff16021790555080600181905550506100da565b600080fd5b6000819050919050565b61008a81610077565b811461009557600080fd5b50565b6000815190506100a781610081565b92915050565b6000602082840312156100c3576100c2610072565b5b60006100d184828501610098565b91505092915050565b610dc5806100e96000396000f3fe6080604052600436106100705760003560e01c80638da5cb5b1161004e5780638da5cb5b146100e0578063b69ef8a81461010b578063b6b55f2514610136578063d20cf0e81461015257610070565b806312065fe0146100755780632e1a7d4d146100a057806385ffebd7146100c9575b600080fd5b34801561008157600080fd5b5061008a61018f565b6040516100979190610862565b60405180910390f35b3480156100ac57600080fd5b506100c760048036038101906100c291906108ae565b610199565b005b3480156100d557600080fd5b506100de61044d565b005b3480156100ec57600080fd5b506100f56104a6565b604051610102919061091c565b60405180910390f35b34801561011757600080fd5b506101206104ca565b60405161012d9190610862565b60405180910390f35b610150600480360381019061014b91906108ae565b6104d0565b005b34801561015e57600080fd5b5061017960048036038101906101749190610975565b61077c565b6040516101869190610abd565b60405180910390f35b6000600154905090565b60008054906101000a900473ffffffffffffffffffffffffffffffffffffffff1673ffffffffffffffffffffffffffffffffffffffff163373ffffffffffffffffffffffffffffffffffffffff1614610227576040517f08c379a000000000000000000000000000000000000000000000000000000000815260040161021e90610b62565b60405180910390fd5b6000600154905081600154101561027957600154826040517fcf479181000000000000000000000000000000000000000000000000000000008152600401610270929190610b82565b60405180910390fd5b816001600082825461028b9190610bda565b9250508190555081600260003373ffffffffffffffffffffffffffffffffffffffff1673ffffffffffffffffffffffffffffffffffffffff16815260200190815260200160002060008282546102e19190610bda565b92505081905550600360003373ffffffffffffffffffffffffffffffffffffffff1673ffffffffffffffffffffffffffffffffffffffff16815260200190815260200160002060405180606001604052808481526020016000151581526020014281525090806001815401808255809150506001900390600052602060002090600302016000909190919091506000820151816000015560208201518160010160006101000a81548160ff02191690831515021790555060408201518160020155505081816103b09190610bda565b600154146103c1576103c0610c0e565b5b7f5b6b431d4476a211bb7d41c20d1aab9ae2321deee0d20be3d9fc9b1093fa6e3d826040516103f09190610862565b60405180910390a13373ffffffffffffffffffffffffffffffffffffffff167f4ec22ad13492b97113931e31768c90720fc59b1c87d7c928651b0476b57e2d2c836000604051610441929190610c4c565b60405180910390a25050565b7f36de1704729aec1eaa0800270d30d2c2b049c9e37a91e426cdcc9ed76bb9c70f60008054906101000a900473ffffffffffffffffffffffffffffffffffffffff1660405161049c9190610cd4565b60405180910390a1565b60008054906101000a900473ffffffffffffffffffffffffffffffffffffffff1681565b60015481565b6000600154905060008054906101000a900473ffffffffffffffffffffffffffffffffffffffff1673ffffffffffffffffffffffffffffffffffffffff163373ffffffffffffffffffffffffffffffffffffffff1614610565576040517f08c379a000000000000000000000000000000000000000000000000000000000815260040161055c90610b62565b60405180910390fd5b600082116105a8576040517f08c379a000000000000000000000000000000000000000000000000000000000815260040161059f90610d3b565b60405180910390fd5b81600160008282546105ba9190610d5b565b9250508190555081600260003373ffffffffffffffffffffffffffffffffffffffff1673ffffffffffffffffffffffffffffffffffffffff16815260200190815260200160002060008282546106109190610d5b565b92505081905550600360003373ffffffffffffffffffffffffffffffffffffffff1673ffffffffffffffffffffffffffffffffffffffff16815260200190815260200160002060405180606001604052808481526020016001151581526020014281525090806001815401808255809150506001900390600052602060002090600302016000909190919091506000820151816000015560208201518160010160006101000a81548160ff02191690831515021790555060408201518160020155505081816106df9190610d5b565b600154146106f0576106ef610c0e565b5b7f4d6ce1e535dbade1c23defba91e23b8f791ce5edc0cc320257a2b364e4e384268260405161071f9190610862565b60405180910390a13373ffffffffffffffffffffffffffffffffffffffff167f4ec22ad13492b97113931e31768c90720fc59b1c87d7c928651b0476b57e2d2c836001604051610770929190610c4c565b60405180910390a25050565b6060600360008373ffffffffffffffffffffffffffffffffffffffff1673ffffffffffffffffffffffffffffffffffffffff168152602001908152602001600020805480602002602001604051908101604052809291908181526020016000905b8282101561083e5783829060005260206000209060030201604051806060016040529081600082015481526020016001820160009054906101000a900460ff16151515158152602001600282015481525050815260200190600101906107dd565b505050509050919050565b6000819050919050565b61085c81610849565b82525050565b60006020820190506108776000830184610853565b92915050565b600080fd5b61088b81610849565b811461089657600080fd5b50565b6000813590506108a881610882565b92915050565b6000602082840312156108c4576108c361087d565b5b60006108d284828501610899565b91505092915050565b600073ffffffffffffffffffffffffffffffffffffffff82169050919050565b6000610906826108db565b9050919050565b610916816108fb565b82525050565b6000602082019050610931600083018461090d565b92915050565b6000610942826108db565b9050919050565b61095281610937565b811461095d57600080fd5b50565b60008135905061096f81610949565b92915050565b60006020828403121561098b5761098a61087d565b5b600061099984828501610960565b91505092915050565b600081519050919050565b600082825260208201905092915050565b6000819050602082019050919050565b6109d781610849565b82525050565b60008115159050919050565b6109f2816109dd565b82525050565b606082016000820151610a0e60008501826109ce565b506020820151610a2160208501826109e9565b506040820151610a3460408501826109ce565b50505050565b6000610a4683836109f8565b60608301905092915050565b6000602082019050919050565b6000610a6a826109a2565b610a7481856109ad565b9350610a7f836109be565b8060005b83811015610ab0578151610a978882610a3a565b9750610aa283610a52565b925050600181019050610a83565b5085935050505092915050565b60006020820190508181036000830152610ad78184610a5f565b905092915050565b600082825260208201905092915050565b7f596f7520617265206e6f7420746865206f776e6572206f66207468697320616360008201527f636f756e74000000000000000000000000000000000000000000000000000000602082015250565b6000610b4c602583610adf565b9150610b5782610af0565b604082019050919050565b60006020820190508181036000830152610b7b81610b3f565b9050919050565b6000604082019050610b976000830185610853565b610ba46020830184610853565b9392505050565b7f4e487b7100000000000000000000000000000000000000000000000000000000600052601160045260246000fd5b6000610be582610849565b9150610bf083610849565b9250828203905081811115610c0857610c07610bab565b5b92915050565b7f4e487b7100000000000000000000000000000000000000000000000000000000600052600160045260246000fd5b610c46816109dd565b82525050565b6000604082019050610c616000830185610853565b610c6e6020830184610c3d565b9392505050565b6000819050919050565b6000610c9a610c95610c90846108db565b610c75565b6108db565b9050919050565b6000610cac82610c7f565b9050919050565b6000610cbe82610ca1565b9050919050565b610cce81610cb3565b82525050565b6000602082019050610ce96000830184610cc5565b92915050565b7f416d6f756e74206d7573742062652067726561746572207468616e2030000000600082015250565b6000610d25601d83610adf565b9150610d3082610cef565b602082019050919050565b60006020820190508181036000830152610d5481610d18565b9050919050565b6000610d6682610849565b9150610d7183610849565b9250828201905080821115610d8957610d88610bab565b5b9291505056fea264697066735822122056cc2a8cedff729e8b52cd7301615551447d342922cfa93a39a8456dae3fa89f64736f6c63430008110033",
  "linkReferences": {},
  "deployedLinkReferences": {}
}