{
  "_format": "hh-sol-artifact-1",
  "contractName": "DegenToken",
  "sourceName": "contracts/DegenToken.sol",
  "abi": [
    {
      "inputs": [],
      "stateMutability": "nonpayable",
      "type": "constructor"
    },
    {
      "anonymous": false,
      "inputs": [
        {
          "indexed": true,
          "internalType": "address",
          "name": "owner",
          "type": "address"
        },
        {
          "indexed": true,
          "internalType": "address",
          "name": "spender",
          "type": "address"
        },
        {
          "indexed": false,
          "internalType": "uint256",
          "name": "value",
          "type": "uint256"
        }
      ],
      "name": "Approval",
      "type": "event"
    },
    {
      "anonymous": false,
      "inputs": [
        {
          "indexed": true,
          "internalType": "address",
          "name": "previousOwner",
          "type": "address"
        },
        {
          "indexed": true,
          "internalType": "address",
          "name": "newOwner",
          "type": "address"
        }
      ],
      "name": "OwnershipTransferred",
      "type": "event"
    },
    {
      "anonymous": false,
      "inputs": [
        {
          "indexed": true,
          "internalType": "address",
          "name": "from",
          "type": "address"
        },
        {
          "indexed": true,
          "internalType": "address",
          "name": "to",
          "type": "address"
        },
        {
          "indexed": false,
          "internalType": "uint256",
          "name": "value",
          "type": "uint256"
        }
      ],
      "name": "Transfer",
      "type": "event"
    },
    {
      "inputs": [
        {
          "internalType": "address",
          "name": "owner",
          "type": "address"
        },
        {
          "internalType": "address",
          "name": "spender",
          "type": "address"
        }
      ],
      "name": "allowance",
      "outputs": [
        {
          "internalType": "uint256",
          "name": "",
          "type": "uint256"
        }
      ],
      "stateMutability": "view",
      "type": "function"
    },
    {
      "inputs": [
        {
          "internalType": "address",
          "name": "spender",
          "type": "address"
        },
        {
          "internalType": "uint256",
          "name": "amount",
          "type": "uint256"
        }
      ],
      "name": "approve",
      "outputs": [
        {
          "internalType": "bool",
          "name": "",
          "type": "bool"
        }
      ],
      "stateMutability": "nonpayable",
      "type": "function"
    },
    {
      "inputs": [
        {
          "internalType": "address",
          "name": "account",
          "type": "address"
        }
      ],
      "name": "balanceOf",
      "outputs": [
        {
          "internalType": "uint256",
          "name": "",
          "type": "uint256"
        }
      ],
      "stateMutability": "view",
      "type": "function"
    },
    {
      "inputs": [
        {
          "internalType": "uint256",
          "name": "_value",
          "type": "uint256"
        }
      ],
      "name": "burnTokens",
      "outputs": [],
      "stateMutability": "nonpayable",
      "type": "function"
    },
    {
      "inputs": [],
      "name": "decimals",
      "outputs": [
        {
          "internalType": "uint8",
          "name": "",
          "type": "uint8"
        }
      ],
      "stateMutability": "pure",
      "type": "function"
    },
    {
      "inputs": [
        {
          "internalType": "address",
          "name": "spender",
          "type": "address"
        },
        {
          "internalType": "uint256",
          "name": "subtractedValue",
          "type": "uint256"
        }
      ],
      "name": "decreaseAllowance",
      "outputs": [
        {
          "internalType": "bool",
          "name": "",
          "type": "bool"
        }
      ],
      "stateMutability": "nonpayable",
      "type": "function"
    },
    {
      "inputs": [],
      "name": "getBalance",
      "outputs": [
        {
          "internalType": "uint256",
          "name": "",
          "type": "uint256"
        }
      ],
      "stateMutability": "view",
      "type": "function"
    },
    {
      "inputs": [
        {
          "internalType": "address",
          "name": "spender",
          "type": "address"
        },
        {
          "internalType": "uint256",
          "name": "addedValue",
          "type": "uint256"
        }
      ],
      "name": "increaseAllowance",
      "outputs": [
        {
          "internalType": "bool",
          "name": "",
          "type": "bool"
        }
      ],
      "stateMutability": "nonpayable",
      "type": "function"
    },
    {
      "inputs": [
        {
          "internalType": "address",
          "name": "to",
          "type": "address"
        },
        {
          "internalType": "uint256",
          "name": "amount",
          "type": "uint256"
        }
      ],
      "name": "mint",
      "outputs": [],
      "stateMutability": "nonpayable",
      "type": "function"
    },
    {
      "inputs": [],
      "name": "name",
      "outputs": [
        {
          "internalType": "string",
          "name": "",
          "type": "string"
        }
      ],
      "stateMutability": "view",
      "type": "function"
    },
    {
      "inputs": [],
      "name": "owner",
      "outputs": [
        {
          "internalType": "address",
          "name": "",
          "type": "address"
        }
      ],
      "stateMutability": "view",
      "type": "function"
    },
    {
      "inputs": [
        {
          "internalType": "uint8",
          "name": "input",
          "type": "uint8"
        }
      ],
      "name": "redeemTokens",
      "outputs": [
        {
          "internalType": "string",
          "name": "",
          "type": "string"
        }
      ],
      "stateMutability": "payable",
      "type": "function"
    },
    {
      "inputs": [],
      "name": "renounceOwnership",
      "outputs": [],
      "stateMutability": "nonpayable",
      "type": "function"
    },
    {
      "inputs": [],
      "name": "showAssets",
      "outputs": [
        {
          "internalType": "string",
          "name": "",
          "type": "string"
        }
      ],
      "stateMutability": "view",
      "type": "function"
    },
    {
      "inputs": [],
      "name": "symbol",
      "outputs": [
        {
          "internalType": "string",
          "name": "",
          "type": "string"
        }
      ],
      "stateMutability": "view",
      "type": "function"
    },
    {
      "inputs": [],
      "name": "totalSupply",
      "outputs": [
        {
          "internalType": "uint256",
          "name": "",
          "type": "uint256"
        }
      ],
      "stateMutability": "view",
      "type": "function"
    },
    {
      "inputs": [
        {
          "internalType": "address",
          "name": "to",
          "type": "address"
        },
        {
          "internalType": "uint256",
          "name": "amount",
          "type": "uint256"
        }
      ],
      "name": "transfer",
      "outputs": [
        {
          "internalType": "bool",
          "name": "",
          "type": "bool"
        }
      ],
      "stateMutability": "nonpayable",
      "type": "function"
    },
    {
      "inputs": [
        {
          "internalType": "address",
          "name": "from",
          "type": "address"
        },
        {
          "internalType": "address",
          "name": "to",
          "type": "address"
        },
        {
          "internalType": "uint256",
          "name": "amount",
          "type": "uint256"
        }
      ],
      "name": "transferFrom",
      "outputs": [
        {
          "internalType": "bool",
          "name": "",
          "type": "bool"
        }
      ],
      "stateMutability": "nonpayable",
      "type": "function"
    },
    {
      "inputs": [
        {
          "internalType": "address",
          "name": "newOwner",
          "type": "address"
        }
      ],
      "name": "transferOwnership",
      "outputs": [],
      "stateMutability": "nonpayable",
      "type": "function"
    },
    {
      "inputs": [
        {
          "internalType": "address",
          "name": "_receiver",
          "type": "address"
        },
        {
          "internalType": "uint256",
          "name": "_value",
          "type": "uint256"
        }
      ],
      "name": "transferTokens",
      "outputs": [],
      "stateMutability": "nonpayable",
      "type": "function"
    }
  ],
  "bytecode": "0x60806040523480156200001157600080fd5b506040518060400160405280600581526020017f446567656e0000000000000000000000000000000000000000000000000000008152506040518060400160405280600381526020017f44474e000000000000000000000000000000000000000000000000000000000081525081600390816200008f91906200071e565b508060049081620000a191906200071e565b505050620000c4620000b8620003d660201b60201c565b620003de60201b60201c565b60066040518060600160405280600c81526020016040518060400160405280600781526020017f526f776c6574740000000000000000000000000000000000000000000000000081525081526020016000151581525090806001815401808255809150506001900390600052602060002090600302016000909190919091506000820151816000015560208201518160010190816200016491906200071e565b5060408201518160020160006101000a81548160ff021916908315150217905550505060066040518060600160405280601081526020016040518060400160405280600481526020017f4c756e610000000000000000000000000000000000000000000000000000000081525081526020016000151581525090806001815401808255809150506001900390600052602060002090600302016000909190919091506000820151816000015560208201518160010190816200022791906200071e565b5060408201518160020160006101000a81548160ff021916908315150217905550505060066040518060600160405280600281526020016040518060400160405280600581526020017f4b697262790000000000000000000000000000000000000000000000000000008152508152602001600015158152509080600181540180825580915050600190039060005260206000209060030201600090919091909150600082015181600001556020820151816001019081620002ea91906200071e565b5060408201518160020160006101000a81548160ff021916908315150217905550505060066040518060600160405280600a81526020016040518060400160405280600581526020017f4d6f6c6c790000000000000000000000000000000000000000000000000000008152508152602001600015158152509080600181540180825580915050600190039060005260206000209060030201600090919091909150600082015181600001556020820151816001019081620003ad91906200071e565b5060408201518160020160006101000a81548160ff021916908315150217905550505062000805565b600033905090565b6000600560009054906101000a900473ffffffffffffffffffffffffffffffffffffffff16905081600560006101000a81548173ffffffffffffffffffffffffffffffffffffffff021916908373ffffffffffffffffffffffffffffffffffffffff1602179055508173ffffffffffffffffffffffffffffffffffffffff168173ffffffffffffffffffffffffffffffffffffffff167f8be0079c531659141344cd1fd0a4f28419497f9722a3daafe3b4186f6b6457e060405160405180910390a35050565b600081519050919050565b7f4e487b7100000000000000000000000000000000000000000000000000000000600052604160045260246000fd5b7f4e487b7100000000000000000000000000000000000000000000000000000000600052602260045260246000fd5b600060028204905060018216806200052657607f821691505b6020821081036200053c576200053b620004de565b5b50919050565b60008190508160005260206000209050919050565b60006020601f8301049050919050565b600082821b905092915050565b600060088302620005a67fffffffffffffffffffffffffffffffffffffffffffffffffffffffffffffffff8262000567565b620005b2868362000567565b95508019841693508086168417925050509392505050565b6000819050919050565b6000819050919050565b6000620005ff620005f9620005f384620005ca565b620005d4565b620005ca565b9050919050565b6000819050919050565b6200061b83620005de565b620006336200062a8262000606565b84845462000574565b825550505050565b600090565b6200064a6200063b565b6200065781848462000610565b505050565b5b818110156200067f576200067360008262000640565b6001810190506200065d565b5050565b601f821115620006ce57620006988162000542565b620006a38462000557565b81016020851015620006b3578190505b620006cb620006c28562000557565b8301826200065c565b50505b505050565b600082821c905092915050565b6000620006f360001984600802620006d3565b1980831691505092915050565b60006200070e8383620006e0565b9150826002028217905092915050565b6200072982620004a4565b67ffffffffffffffff811115620007455762000744620004af565b5b6200075182546200050d565b6200075e82828562000683565b600060209050601f83116001811462000796576000841562000781578287015190505b6200078d858262000700565b865550620007fd565b601f198416620007a68662000542565b60005b82811015620007d057848901518255600182019150602085019450602081019050620007a9565b86831015620007f05784890151620007ec601f891682620006e0565b8355505b6001600288020188555050505b505050505050565b61278780620008156000396000f3fe60806040526004361061011f5760003560e01c806370a08231116100a0578063a9059cbb11610064578063a9059cbb146103f0578063bec3fa171461042d578063dd62ed3e14610456578063df2e2d2214610493578063f2fde38b146104be5761011f565b806370a0823114610309578063715018a6146103465780638da5cb5b1461035d57806395d89b4114610388578063a457c2d7146103b35761011f565b8063313ce567116100e7578063313ce5671461021f578063395093511461024a57806340c10f191461028757806350aed53e146102b05780636d1b229d146102e05761011f565b806306fdde0314610124578063095ea7b31461014f57806312065fe01461018c57806318160ddd146101b757806323b872dd146101e2575b600080fd5b34801561013057600080fd5b506101396104e7565b60405161014691906118ea565b60405180910390f35b34801561015b57600080fd5b50610176600480360381019061017191906119a5565b610579565b6040516101839190611a00565b60405180910390f35b34801561019857600080fd5b506101a161059c565b6040516101ae9190611a2a565b60405180910390f35b3480156101c357600080fd5b506101cc61061d565b6040516101d99190611a2a565b60405180910390f35b3480156101ee57600080fd5b5061020960048036038101906102049190611a45565b610627565b6040516102169190611a00565b60405180910390f35b34801561022b57600080fd5b50610234610656565b6040516102419190611ab4565b60405180910390f35b34801561025657600080fd5b50610271600480360381019061026c91906119a5565b61065b565b60405161027e9190611a00565b60405180910390f35b34801561029357600080fd5b506102ae60048036038101906102a991906119a5565b610692565b005b6102ca60048036038101906102c59190611afb565b6106a8565b6040516102d791906118ea565b60405180910390f35b3480156102ec57600080fd5b5061030760048036038101906103029190611b28565b6108ec565b005b34801561031557600080fd5b50610330600480360381019061032b9190611b55565b610944565b60405161033d9190611a2a565b60405180910390f35b34801561035257600080fd5b5061035b61098c565b005b34801561036957600080fd5b506103726109a0565b60405161037f9190611b91565b60405180910390f35b34801561039457600080fd5b5061039d6109ca565b6040516103aa91906118ea565b60405180910390f35b3480156103bf57600080fd5b506103da60048036038101906103d591906119a5565b610a5c565b6040516103e79190611a00565b60405180910390f35b3480156103fc57600080fd5b50610417600480360381019061041291906119a5565b610ad3565b6040516104249190611a00565b60405180910390f35b34801561043957600080fd5b50610454600480360381019061044f91906119a5565b610af6565b005b34801561046257600080fd5b5061047d60048036038101906104789190611bac565b610b5c565b60405161048a9190611a2a565b60405180910390f35b34801561049f57600080fd5b506104a8610be3565b6040516104b591906118ea565b60405180910390f35b3480156104ca57600080fd5b506104e560048036038101906104e09190611b55565b610c72565b005b6060600380546104f690611c1b565b80601f016020809104026020016040519081016040528092919081815260200182805461052290611c1b565b801561056f5780601f106105445761010080835404028352916020019161056f565b820191906000526020600020905b81548152906001019060200180831161055257829003601f168201915b5050505050905090565b600080610584610cf5565b9050610591818585610cfd565b600191505092915050565b60003073ffffffffffffffffffffffffffffffffffffffff166370a08231336040518263ffffffff1660e01b81526004016105d79190611b91565b602060405180830381865afa1580156105f4573d6000803e3d6000fd5b505050506040513d601f19601f820116820180604052508101906106189190611c61565b905090565b6000600254905090565b600080610632610cf5565b905061063f858285610ec6565b61064a858585610f52565b60019150509392505050565b600090565b600080610666610cf5565b90506106878185856106788589610b5c565b6106829190611cbd565b610cfd565b600191505092915050565b61069a6111c8565b6106a48282611246565b5050565b606060008260ff161015806106c1575060038260ff1611155b610700576040517f08c379a00000000000000000000000000000000000000000000000000000000081526004016106f790611d3d565b60405180910390fd5b6000151560068360ff168154811061071b5761071a611d5d565b5b906000526020600020906003020160020160009054906101000a900460ff1615151461077c576040517f08c379a000000000000000000000000000000000000000000000000000000000815260040161077390611dd8565b60405180910390fd5b60068260ff168154811061079357610792611d5d565b5b9060005260206000209060030201600001546107ae33610944565b10156107ef576040517f08c379a00000000000000000000000000000000000000000000000000000000081526004016107e690611e6a565b60405180910390fd5b6108213360068460ff168154811061080a57610809611d5d565b5b906000526020600020906003020160000154610579565b5061085c3361082e6109a0565b60068560ff168154811061084557610844611d5d565b5b906000526020600020906003020160000154610627565b50600160068360ff168154811061087657610875611d5d565b5b906000526020600020906003020160020160006101000a81548160ff02191690831515021790555060068260ff16815481106108b5576108b4611d5d565b5b90600052602060002090600302016001016040516020016108d69190611f53565b6040516020818303038152906040529050919050565b806108f633610944565b1015610937576040517f08c379a000000000000000000000000000000000000000000000000000000000815260040161092e90611e6a565b60405180910390fd5b610941338261139c565b50565b60008060008373ffffffffffffffffffffffffffffffffffffffff1673ffffffffffffffffffffffffffffffffffffffff168152602001908152602001600020549050919050565b6109946111c8565b61099e6000611569565b565b6000600560009054906101000a900473ffffffffffffffffffffffffffffffffffffffff16905090565b6060600480546109d990611c1b565b80601f0160208091040260200160405190810160405280929190818152602001828054610a0590611c1b565b8015610a525780601f10610a2757610100808354040283529160200191610a52565b820191906000526020600020905b815481529060010190602001808311610a3557829003601f168201915b5050505050905090565b600080610a67610cf5565b90506000610a758286610b5c565b905083811015610aba576040517f08c379a0000000000000000000000000000000000000000000000000000000008152600401610ab190611feb565b60405180910390fd5b610ac78286868403610cfd565b60019250505092915050565b600080610ade610cf5565b9050610aeb818585610f52565b600191505092915050565b80610b0033610944565b1015610b41576040517f08c379a0000000000000000000000000000000000000000000000000000000008152600401610b3890611e6a565b60405180910390fd5b610b4b3382610579565b50610b57338383610627565b505050565b6000600160008473ffffffffffffffffffffffffffffffffffffffff1673ffffffffffffffffffffffffffffffffffffffff16815260200190815260200160002060008373ffffffffffffffffffffffffffffffffffffffff1673ffffffffffffffffffffffffffffffffffffffff16815260200190815260200160002054905092915050565b6060600060405180602001604052806000815250905060005b6004811015610c6a5781610c0f8261162f565b60068381548110610c2357610c22611d5d565b5b9060005260206000209060030201600101604051602001610c4693929190612088565b60405160208183030381529060405291508080610c62906120d7565b915050610bfc565b508091505090565b610c7a6111c8565b600073ffffffffffffffffffffffffffffffffffffffff168173ffffffffffffffffffffffffffffffffffffffff1603610ce9576040517f08c379a0000000000000000000000000000000000000000000000000000000008152600401610ce090612191565b60405180910390fd5b610cf281611569565b50565b600033905090565b600073ffffffffffffffffffffffffffffffffffffffff168373ffffffffffffffffffffffffffffffffffffffff1603610d6c576040517f08c379a0000000000000000000000000000000000000000000000000000000008152600401610d6390612223565b60405180910390fd5b600073ffffffffffffffffffffffffffffffffffffffff168273ffffffffffffffffffffffffffffffffffffffff1603610ddb576040517f08c379a0000000000000000000000000000000000000000000000000000000008152600401610dd2906122b5565b60405180910390fd5b80600160008573ffffffffffffffffffffffffffffffffffffffff1673ffffffffffffffffffffffffffffffffffffffff16815260200190815260200160002060008473ffffffffffffffffffffffffffffffffffffffff1673ffffffffffffffffffffffffffffffffffffffff168152602001908152602001600020819055508173ffffffffffffffffffffffffffffffffffffffff168373ffffffffffffffffffffffffffffffffffffffff167f8c5be1e5ebec7d5bd14f71427d1e84f3dd0314c0f7b2291e5b200ac8c7c3b92583604051610eb99190611a2a565b60405180910390a3505050565b6000610ed28484610b5c565b90507fffffffffffffffffffffffffffffffffffffffffffffffffffffffffffffffff8114610f4c5781811015610f3e576040517f08c379a0000000000000000000000000000000000000000000000000000000008152600401610f3590612321565b60405180910390fd5b610f4b8484848403610cfd565b5b50505050565b600073ffffffffffffffffffffffffffffffffffffffff168373ffffffffffffffffffffffffffffffffffffffff1603610fc1576040517f08c379a0000000000000000000000000000000000000000000000000000000008152600401610fb8906123b3565b60405180910390fd5b600073ffffffffffffffffffffffffffffffffffffffff168273ffffffffffffffffffffffffffffffffffffffff1603611030576040517f08c379a000000000000000000000000000000000000000000000000000000000815260040161102790612445565b60405180910390fd5b61103b8383836116fd565b60008060008573ffffffffffffffffffffffffffffffffffffffff1673ffffffffffffffffffffffffffffffffffffffff168152602001908152602001600020549050818110156110c1576040517f08c379a00000000000000000000000000000000000000000000000000000000081526004016110b8906124d7565b60405180910390fd5b8181036000808673ffffffffffffffffffffffffffffffffffffffff1673ffffffffffffffffffffffffffffffffffffffff16815260200190815260200160002081905550816000808573ffffffffffffffffffffffffffffffffffffffff1673ffffffffffffffffffffffffffffffffffffffff168152602001908152602001600020600082825401925050819055508273ffffffffffffffffffffffffffffffffffffffff168473ffffffffffffffffffffffffffffffffffffffff167fddf252ad1be2c89b69c2b068fc378daa952ba7f163c4a11628f55a4df523b3ef846040516111af9190611a2a565b60405180910390a36111c2848484611702565b50505050565b6111d0610cf5565b73ffffffffffffffffffffffffffffffffffffffff166111ee6109a0565b73ffffffffffffffffffffffffffffffffffffffff1614611244576040517f08c379a000000000000000000000000000000000000000000000000000000000815260040161123b90612543565b60405180910390fd5b565b600073ffffffffffffffffffffffffffffffffffffffff168273ffffffffffffffffffffffffffffffffffffffff16036112b5576040517f08c379a00000000000000000000000000000000000000000000000000000000081526004016112ac906125af565b60405180910390fd5b6112c1600083836116fd565b80600260008282546112d39190611cbd565b92505081905550806000808473ffffffffffffffffffffffffffffffffffffffff1673ffffffffffffffffffffffffffffffffffffffff168152602001908152602001600020600082825401925050819055508173ffffffffffffffffffffffffffffffffffffffff16600073ffffffffffffffffffffffffffffffffffffffff167fddf252ad1be2c89b69c2b068fc378daa952ba7f163c4a11628f55a4df523b3ef836040516113849190611a2a565b60405180910390a361139860008383611702565b5050565b600073ffffffffffffffffffffffffffffffffffffffff168273ffffffffffffffffffffffffffffffffffffffff160361140b576040517f08c379a000000000000000000000000000000000000000000000000000000000815260040161140290612641565b60405180910390fd5b611417826000836116fd565b60008060008473ffffffffffffffffffffffffffffffffffffffff1673ffffffffffffffffffffffffffffffffffffffff1681526020019081526020016000205490508181101561149d576040517f08c379a0000000000000000000000000000000000000000000000000000000008152600401611494906126d3565b60405180910390fd5b8181036000808573ffffffffffffffffffffffffffffffffffffffff1673ffffffffffffffffffffffffffffffffffffffff1681526020019081526020016000208190555081600260008282540392505081905550600073ffffffffffffffffffffffffffffffffffffffff168373ffffffffffffffffffffffffffffffffffffffff167fddf252ad1be2c89b69c2b068fc378daa952ba7f163c4a11628f55a4df523b3ef846040516115509190611a2a565b60405180910390a361156483600084611702565b505050565b6000600560009054906101000a900473ffffffffffffffffffffffffffffffffffffffff16905081600560006101000a81548173ffffffffffffffffffffffffffffffffffffffff021916908373ffffffffffffffffffffffffffffffffffffffff1602179055508173ffffffffffffffffffffffffffffffffffffffff168173ffffffffffffffffffffffffffffffffffffffff167f8be0079c531659141344cd1fd0a4f28419497f9722a3daafe3b4186f6b6457e060405160405180910390a35050565b60606000600161163e84611707565b01905060008167ffffffffffffffff81111561165d5761165c6126f3565b5b6040519080825280601f01601f19166020018201604052801561168f5781602001600182028036833780820191505090505b509050600082602001820190505b6001156116f2578080600190039150507f3031323334353637383961626364656600000000000000000000000000000000600a86061a8153600a85816116e6576116e5612722565b5b0494506000850361169d575b819350505050919050565b505050565b505050565b600080600090507a184f03e93ff9f4daa797ed6e38ed64bf6a1f0100000000000000008310611765577a184f03e93ff9f4daa797ed6e38ed64bf6a1f010000000000000000838161175b5761175a612722565b5b0492506040810190505b6d04ee2d6d415b85acef810000000083106117a2576d04ee2d6d415b85acef8100000000838161179857611797612722565b5b0492506020810190505b662386f26fc1000083106117d157662386f26fc1000083816117c7576117c6612722565b5b0492506010810190505b6305f5e10083106117fa576305f5e10083816117f0576117ef612722565b5b0492506008810190505b612710831061181f57612710838161181557611814612722565b5b0492506004810190505b60648310611842576064838161183857611837612722565b5b0492506002810190505b600a8310611851576001810190505b80915050919050565b600081519050919050565b600082825260208201905092915050565b60005b83811015611894578082015181840152602081019050611879565b60008484015250505050565b6000601f19601f8301169050919050565b60006118bc8261185a565b6118c68185611865565b93506118d6818560208601611876565b6118df816118a0565b840191505092915050565b6000602082019050818103600083015261190481846118b1565b905092915050565b600080fd5b600073ffffffffffffffffffffffffffffffffffffffff82169050919050565b600061193c82611911565b9050919050565b61194c81611931565b811461195757600080fd5b50565b60008135905061196981611943565b92915050565b6000819050919050565b6119828161196f565b811461198d57600080fd5b50565b60008135905061199f81611979565b92915050565b600080604083850312156119bc576119bb61190c565b5b60006119ca8582860161195a565b92505060206119db85828601611990565b9150509250929050565b60008115159050919050565b6119fa816119e5565b82525050565b6000602082019050611a1560008301846119f1565b92915050565b611a248161196f565b82525050565b6000602082019050611a3f6000830184611a1b565b92915050565b600080600060608486031215611a5e57611a5d61190c565b5b6000611a6c8682870161195a565b9350506020611a7d8682870161195a565b9250506040611a8e86828701611990565b9150509250925092565b600060ff82169050919050565b611aae81611a98565b82525050565b6000602082019050611ac96000830184611aa5565b92915050565b611ad881611a98565b8114611ae357600080fd5b50565b600081359050611af581611acf565b92915050565b600060208284031215611b1157611b1061190c565b5b6000611b1f84828501611ae6565b91505092915050565b600060208284031215611b3e57611b3d61190c565b5b6000611b4c84828501611990565b91505092915050565b600060208284031215611b6b57611b6a61190c565b5b6000611b798482850161195a565b91505092915050565b611b8b81611931565b82525050565b6000602082019050611ba66000830184611b82565b92915050565b60008060408385031215611bc357611bc261190c565b5b6000611bd18582860161195a565b9250506020611be28582860161195a565b9150509250929050565b7f4e487b7100000000000000000000000000000000000000000000000000000000600052602260045260246000fd5b60006002820490506001821680611c3357607f821691505b602082108103611c4657611c45611bec565b5b50919050565b600081519050611c5b81611979565b92915050565b600060208284031215611c7757611c7661190c565b5b6000611c8584828501611c4c565b91505092915050565b7f4e487b7100000000000000000000000000000000000000000000000000000000600052601160045260246000fd5b6000611cc88261196f565b9150611cd38361196f565b9250828201905080821115611ceb57611cea611c8e565b5b92915050565b7f496e76616c696420496e70757400000000000000000000000000000000000000600082015250565b6000611d27600d83611865565b9150611d3282611cf1565b602082019050919050565b60006020820190508181036000830152611d5681611d1a565b9050919050565b7f4e487b7100000000000000000000000000000000000000000000000000000000600052603260045260246000fd5b7f54686973206974656d20697320616c72656164792072656465656d6564210000600082015250565b6000611dc2601e83611865565b9150611dcd82611d8c565b602082019050919050565b60006020820190508181036000830152611df181611db5565b9050919050565b7f596f7520646f206e6f74206861766520656e6f75676820446567656e20546f6b60008201527f656e730000000000000000000000000000000000000000000000000000000000602082015250565b6000611e54602383611865565b9150611e5f82611df8565b604082019050919050565b60006020820190508181036000830152611e8381611e47565b9050919050565b600081905092915050565b60008190508160005260206000209050919050565b60008154611eb781611c1b565b611ec18186611e8a565b94506001821660008114611edc5760018114611ef157611f24565b60ff1983168652811515820286019350611f24565b611efa85611e95565b60005b83811015611f1c57815481890152600182019150602081019050611efd565b838801955050505b50505092915050565b7f20686173206265656e2072656465656d65642100000000000000000000000000815250565b6000611f5f8284611eaa565b9150611f6a82611f2d565b60138201915081905092915050565b7f45524332303a2064656372656173656420616c6c6f77616e63652062656c6f7760008201527f207a65726f000000000000000000000000000000000000000000000000000000602082015250565b6000611fd5602583611865565b9150611fe082611f79565b604082019050919050565b6000602082019050818103600083015261200481611fc8565b9050919050565b60006120168261185a565b6120208185611e8a565b9350612030818560208601611876565b80840191505092915050565b7f2020200000000000000000000000000000000000000000000000000000000000815250565b7f2e20000000000000000000000000000000000000000000000000000000000000815250565b6000612094828661200b565b915061209f8261203c565b6003820191506120af828561200b565b91506120ba82612062565b6002820191506120ca8284611eaa565b9150819050949350505050565b60006120e28261196f565b91507fffffffffffffffffffffffffffffffffffffffffffffffffffffffffffffffff820361211457612113611c8e565b5b600182019050919050565b7f4f776e61626c653a206e6577206f776e657220697320746865207a65726f206160008201527f6464726573730000000000000000000000000000000000000000000000000000602082015250565b600061217b602683611865565b91506121868261211f565b604082019050919050565b600060208201905081810360008301526121aa8161216e565b9050919050565b7f45524332303a20617070726f76652066726f6d20746865207a65726f2061646460008201527f7265737300000000000000000000000000000000000000000000000000000000602082015250565b600061220d602483611865565b9150612218826121b1565b604082019050919050565b6000602082019050818103600083015261223c81612200565b9050919050565b7f45524332303a20617070726f766520746f20746865207a65726f20616464726560008201527f7373000000000000000000000000000000000000000000000000000000000000602082015250565b600061229f602283611865565b91506122aa82612243565b604082019050919050565b600060208201905081810360008301526122ce81612292565b9050919050565b7f45524332303a20696e73756666696369656e7420616c6c6f77616e6365000000600082015250565b600061230b601d83611865565b9150612316826122d5565b602082019050919050565b6000602082019050818103600083015261233a816122fe565b9050919050565b7f45524332303a207472616e736665722066726f6d20746865207a65726f20616460008201527f6472657373000000000000000000000000000000000000000000000000000000602082015250565b600061239d602583611865565b91506123a882612341565b604082019050919050565b600060208201905081810360008301526123cc81612390565b9050919050565b7f45524332303a207472616e7366657220746f20746865207a65726f206164647260008201527f6573730000000000000000000000000000000000000000000000000000000000602082015250565b600061242f602383611865565b915061243a826123d3565b604082019050919050565b6000602082019050818103600083015261245e81612422565b9050919050565b7f45524332303a207472616e7366657220616d6f756e742065786365656473206260008201527f616c616e63650000000000000000000000000000000000000000000000000000602082015250565b60006124c1602683611865565b91506124cc82612465565b604082019050919050565b600060208201905081810360008301526124f0816124b4565b9050919050565b7f4f776e61626c653a2063616c6c6572206973206e6f7420746865206f776e6572600082015250565b600061252d602083611865565b9150612538826124f7565b602082019050919050565b6000602082019050818103600083015261255c81612520565b9050919050565b7f45524332303a206d696e7420746f20746865207a65726f206164647265737300600082015250565b6000612599601f83611865565b91506125a482612563565b602082019050919050565b600060208201905081810360008301526125c88161258c565b9050919050565b7f45524332303a206275726e2066726f6d20746865207a65726f2061646472657360008201527f7300000000000000000000000000000000000000000000000000000000000000602082015250565b600061262b602183611865565b9150612636826125cf565b604082019050919050565b6000602082019050818103600083015261265a8161261e565b9050919050565b7f45524332303a206275726e20616d6f756e7420657863656564732062616c616e60008201527f6365000000000000000000000000000000000000000000000000000000000000602082015250565b60006126bd602283611865565b91506126c882612661565b604082019050919050565b600060208201905081810360008301526126ec816126b0565b9050919050565b7f4e487b7100000000000000000000000000000000000000000000000000000000600052604160045260246000fd5b7f4e487b7100000000000000000000000000000000000000000000000000000000600052601260045260246000fdfea2646970667358221220ecd457d0157c10cdd47075810d587df1c5d9a1ce8cf9ed9d0cd3877096bfa4cd64736f6c63430008120033",
  "linkReferences": {},
  "deployedLinkReferences": {}
}